:02000000402896
:100008000B1C09008801061C0D280B10061008148B
:100018000900861C13280B10861088140900061D79
:1000280019280B10061108150900861D1F280B102A
:10003800861188150900061E25280B1006120816B9
:100048000900861E2B280B10861288160900061F29
:1000580031280B10061308170900861F07280B10F4
:0600680086138817090051
:10008000031383164030810003138316FF3095005D
:100090008B01C8308B0003138316FF3096000313C7
:1000A000831670308F000317831600308800031703
:1000B00083160030890003138316FF308600031374
:1000C00083168501031383168801031383128501A8
:1000D000031383128801031383128601081C7528F9
:1000E0000514D3200510D3206E28881C7C28051405
:1000F000CD200510CD207528081D83280514C720A4
:100100000510C7207C28881D8A280514C1200510E9
:10011000C1208328081E91280514BB200510BB2090
:100120008A28881E98280514B5200510B520912826
:10013000081F9F280514AF200510AF209828881F9E
:100140006E280514A6200510A6209F28FF30A900C0
:10015000FF30A800A80BAA28A90BA8280800023085
:10016000A000A620A00BB12808000230A100AF20FB
:10017000A10BB72808000230A200B520A20BBD28B1
:1001800008000230A300BB20A30BC32808000230E4
:10019000A400C120A40BC92808000230A500C72074
:1001A000A50BCF2808000230A600CD20A60BD5282D
:0201B000080045
:04400E00C400FF3FAC
:00000001FF
